:020000040800F2
:1000000000280020C10F0008010C0008070C0008A0
:100010000D0C0008130C0008190C0008000000006B
:100020000000000000000000000000001F0C00089D
:100030002B0C000800000000370C0008430C0008DF
:10004000091000080910000809100008091000082C
:10005000091000080910000809100008091000081C
:10006000091000080910000809100008091000080C
:1000700009100008091000080910000809100008FC
:1000800009100008091000080910000809100008EC
:1000900009100008091000080910000809100008DC
:1000A00009100008091000080910000809100008CC
:1000B000510C000809100008000000000910000899
:1000C00009100008000000000000000009100008EE
:1000D00000000000091000080910000800000000DE
:1000E00009100008091000080910000800000000AD
:1000F0000000000000000000000000000000000000
:0C01000000000000000000005FF808F1A3
:10010C0010B5054C237833B9044B13B10448AFF345
:10011C0000800123237010BD40000020000000006F
:10012C005826000808B5034B1BB103490348AFF32D
:10013C00008008BD00000000440000205826000884
:10014C0080B483B000AF7860094A7B6852F82330E2
:10015C00012B06D1064A7B68002142F823100123AB
:10016C0000E0002318460C37BD4680BC704700BF2A
:10017C005C00002080B483B000AF7860044A7B68D8
:10018C00012142F8231000BF0C37BD4680BC7047DC
:10019C005C00002080B582B000AF00237B6099E04A
:1001AC00514A7B6813441978504A7B6813440A46B9
:1001BC001A704F4A7B68134419784B4A7B68134476
:1001CC000A461A707B68022B21D07B68022B2ADC32
:1001DC007B68002B03D07B68012B0CD023E008211B
:1001EC00444801F0F9F903461946414A7B68134427
:1001FC000A461A7018E010213E4801F0EDF903464A
:10020C0019463B4A7B6813440A461A700CE040219D
:10021C00384801F0E1F903461946354A7B68134426
:10022C000A461A7000E000BF304A7B6813441A7803
:10023C002D497B680B441B789A4248D12A4A7B682B
:10024C0013441A782A497B680B441B789A423ED196
:10025C00294A7B6813441A7825497B680B441B7820
:10026C009A4217D0224A7B6813441978224A7B6839
:10027C0013440A461A70204A7B6813441B78002BDF
:10028C0025D17868FFF776FF1C4A7B68642142F819
:10029C0023101CE0194A7B6852F823305A1E174968
:1002AC007B6841F82320154A7B6852F82330002BD9
:1002BC000DD1114A7B6813441B78002B07D1786849
:1002CC00FFF758FF0D4A7B68142142F823107B6816
:1002DC0001337B607B68022B7FF762AF00BF00BFEE
:1002EC000837BD4680BD00BF040000200000002080
:1002FC0008000020000801400C0000201000002025
:10030C0080B500AFA04B1B78042B00F2328101A208
:10031C0052F823F0350300087B030008FD030008A6
:10032C007F040008FF040008984B1B68984A136070
:10033C00984B1B68984A136001224FF4045197485C
:10034C0001F061F900224FF4F051944801F05BF98F
:10035C0000F080FB8D4B1B684FF47A7202FB03F3A9
:10036C00184600F03FFB884B01221A700AE101226B
:10037C004FF40451894801F046F900224FF4F05132
:10038C00864801F040F90020FFF7DAFE0346002B07
:10039C0004D000F06FFB7C4B06221A70804B1B685C
:1003AC00012B0BD100F056FB794B1B68013B784AB3
:1003BC001360794B1B68013B774A1360794B1B68C0
:1003CC00012B40F0D880784B1B684FF47A7202FBFB
:1003DC0003F3184600F006FB734B1B686C4A136062
:1003EC00714B1B686C4A1360674B02221A70C2E097
:1003FC0001224FF40851694801F005F900224FF42D
:10040C00E851664801F0FFF80020FFF799FE03461B
:10041C00002B04D000F02EFB5B4B06221A70604BB5
:10042C001B68012B0BD100F015FB594B1B68013BD2
:10043C00574A1360584B1B68013B574A1360594B82
:10044C001B68012B40F09980504B1B684FF47A725B
:10045C0002FB03F3184600F0C5FA4E4B1B684C4ADE
:10046C0013604A4B1B684C4A1360474B03221A70AB
:10047C0083E001224FF44061484801F0C4F80022A7
:10048C004FF44C51454801F0BEF80020FFF758FEE0
:10049C000346002B04D000F0EDFA3B4B06221A70F9
:1004AC003F4B1B68012B0BD100F0D4FA384B1B6867
:1004BC00013B374A1360384B1B68013B364A1360CB
:1004CC00384B1B68012B5AD1374B1B68304A1360D1
:1004DC00354B1B68304A1360334B1B684FF47A72F0
:1004EC0002FB03F3184600F07DFA274B04221A7026
:1004FC0045E001224FF4A051284801F084F8002275
:10050C004FF42C51254801F07EF80020FFF718FE1F
:10051C000346002B04D000F0ADFA1B4B06221A70D8
:10052C001F4B1B68012B0BD100F094FA184B1B6866
:10053C00013B174A1360184B1B68013B164A1360AA
:10054C00184B1B68012B1CD1104B1B684FF47A7293
:10055C0002FB03F3184600F045FA0C4B1B680C4ADF
:10056C0013600C4B1B680C4A1360074B01221A706A
:10057C0007E000BF06E000BF04E000BF02E000BFE0
:10058C0000E000BF00BF80BD6800002020000020FC
:10059C00700000201C0000207400002000080140A6
:1005AC00DC000020C40000202400002080B500AF37
:1005BC00734B1B78072B4DD0072B00F3D880052BE2
:1005CC0000F08A80062B40F0D28000224FF46C5150
:1005DC006C4801F018F86C4B1B68012B06D100F02D
:1005EC0049FA4FF48061674801F025F8674B022205
:1005FC001A60674B1B68674A13600020FFF7A0FD69
:10060C000346002B02D05E4B07221A700120FFF725
:10061C0097FD0346002B12D05D4B1B6801335C4ADF
:10062C0013605B4B1B68632B02DD594B05221A6070
:10063C00574B1A68584B1B68D31A584A1360022040
:10064C00FFF77EFD0346002B00F093804C4B0022FD
:10065C001A708EE000224FF474514A4800F0D3FF18
:10066C00494B1B68012B06D100F004FA4FF40071C2
:10067C00444800F0E0FF454B03221A60464B1B68D0
:10068C00444A13600020FFF75BFD0346002B02D0A9
:10069C003B4B05221A700120FFF752FD0346002B3D
:1006AC0010D03D4B1B6801333B4A13603A4B1B681F
:1006BC00602B02DD384B02221A60354B1B6801336C
:1006CC00334A13600220FFF73BFD0346002B52D048
:1006DC002B4B00221A704EE000224FF4785129481F
:1006EC0000F091FF284B1B68012B06D100F0C2F9DA
:1006FC004FF48071234800F09EFF244B04221A60B3
:10070C00264B1B68234A13600020FFF719FD034694
:10071C00002B0BD0214B03221A601F4B02221A60B4
:10072C001B4B05221A60164B00221A700120FFF792
:10073C0007FD0346002B10D0184B1B680133174ADA
:10074C001360164B1B68612B02DD144B03221A60DD
:10075C000F4B1B6801330E4A13600220FFF7F0FCAD
:10076C000346002B09D0064B00221A7005E000BF8F
:10077C0004E000BF02E000BF00E000BF00BF80BD8E
:10078C006800002000080140E400002070000020F8
:10079C001C000020740000202400002020000020F9
:1007AC0080B500AF00F02CFC00F020F800F0A6F8AB
:1007BC0000F058F8094801F085FB094B00221A702B
:1007CC00FFF79EFDFFF7F2FE064B1B68064A126808
:1007DC001146184600F024FBF2E700BF7800002019
:1007EC0068000020700000207400002080B590B0DC
:1007FC0000AF07F1180328220021184601F01EFF54
:10080C003B1D00221A605A609A60DA601A6102235A
:10081C00BB610123BB621023FB6200237B6307F1E6
:10082C001803184600F020FF0346002B01D000F0FF
:10083C00D3F80F237B600023BB600023FB600023F5
:10084C003B6100237B613B1D0021184601F08EF9B2
:10085C000346002B01D000F0BFF800BF4037BD4667
:10086C0080BD000080B586B000AF07F10803002200
:10087C001A605A609A60DA603B4600221A605A602D
:10088C001D4B4FF080421A601B4B41F63F725A6071
:10089C00194B00229A60184B0922DA60164B002281
:1008AC001A61154B00229A61134801F0BBFA0346FA
:1008BC00002B01D000F090F84FF48053BB6007F18F
:1008CC00080319460C4801F051FC0346002B01D0DB
:1008DC0000F082F800233B6000237B603B46194606
:1008EC00054801F01DFE0346002B01D000F074F802
:1008FC0000BF1837BD4680BD7800002080B586B09B
:10090C0000AF07F1080300221A605A609A60DA609F
:10091C00284B9B69274A43F004039361254B9B6941
:10092C0003F004037B607B68224B9B69214A43F0F4
:10093C00080393611F4B9B6903F008033B603B6802
:10094C0000224FF626711C4800F05DFE002243F693
:10095C00FF711A4800F057FE4FF62673BB60012357
:10096C00FB6000233B6102237B6107F108031946FE
:10097C00114800F0B5FC5823BB600023FB60012339
:10098C003B6107F1080319460B4800F0A9FC43F63C
:10099C00FF73BB600123FB6000233B6102237B617F
:1009AC0007F108031946054800F09AFC00BF1837F8
:1009BC00BD4680BD0010024000080140000C014003
:1009CC0080B582B000AF786000F064F8FFF7E2FB0E
:1009DC0000BF0837BD4680BD80B400AF72B600BF03
:1009EC00FEE7000080B483B000AF7860084B0022B3
:1009FC001A607B68074A82FB03129210DB17D31A2A
:100A0C00054A136000BF0C37BD4680BC704700BF61
:100A1C00C400002067666666C000002080B483B006
:100A2C0000AF7860084B00221A607B68074A82FB93
:100A3C0003129210DB17D31A054A136000BF0C3750
:100A4C00BD4680BC704700BFCC0000206766666660
:100A5C00C800002080B400AF044B00221A60044B85
:100A6C0064221A6000BFBD4680BC7047DC000020C9
:100A7C00D800002080B400AF044B00221A60044B55
:100A8C0032221A6000BFBD4680BC7047E4000020D3
:100A9C00E000002080B400AF294B1B68002B0BDD5D
:100AAC00274B1B68013B264A1360254B1B68002B08
:100ABC0002DC244B01221A60234B1B68002B0BDD3C
:100ACC00214B1B68013B204A13601F4B1B68002BFA
:100ADC0002DC1E4B01221A601D4B1B68002B0BDD28
:100AEC001B4B1B68013B1A4A1360194B1B68002BEC
:100AFC0002DC184B01221A60174B1B68002B0BDD14
:100B0C00154B1B68013B144A1360134B1B68002BDD
:100B1C0002DC124B01221A60114B1B68002B0BDDFF
:100B2C000F4B1B68013B0E4A13600D4B1B68002BCF
:100B3C0002DC0C4B01221A6000BFBD4680BC704722
:100B4C00C0000020C4000020C8000020CC00002001
:100B5C00D0000020D4000020D8000020DC000020B1
:100B6C00E0000020E400002080B483B000AF0E4B06
:100B7C009B690D4A43F0010393610B4B9B6903F096
:100B8C0001037B607B68084BDB69074A43F08053A9
:100B9C00D361054BDB6903F080533B603B6800BFBE
:100BAC000C37BD4680BC70470010024080B584B045
:100BBC0000AF78607B681B68B3F1804F13D10C4B8E
:100BCC00DB690B4A43F00103D361094BDB6903F08A
:100BDC000103FB60FB68002200211C2000F049FB94
:100BEC001C2000F062FB00BF1037BD4680BD00BF6B
:100BFC000010024080B400AFFEE780B400AFFEE707
:100C0C0080B400AFFEE780B400AFFEE780B400AF65
:100C1C00FEE780B400AF00BFBD4680BC704780B417
:100C2C0000AF00BFBD4680BC704780B400AF00BFB2
:100C3C00BD4680BC704780B500AF00F027FA00BFFE
:100C4C0080BD000080B500AF024801F087F900BFFD
:100C5C0080BD00BF7800002080B400AF00BFBD464F
:100C6C0080BC704780B582B000AF7860314A7B6839
:100C7C0013441B7803F00103DBB21A4601212E4802
:100C8C0000F0C1FC2B4A7B6813441B785B08DBB279
:100C9C0003F00103DBB21A460221274800F0B3FC33
:100CAC00244A7B6813441B789B08DBB203F00103D6
:100CBC00DBB21A460421204800F0A5FC1D4A7B68D3
:100CCC0013441B78DB08DBB203F00103DBB21A46DA
:100CDC000821194800F097FC164A7B6813441B78CE
:100CEC001B09DBB203F00103DBB21A4610211248D8
:100CFC0000F089FC0F4A7B6813441B785B09DBB25C
:100D0C0003F00103DBB21A4620210B4800F07BFCF8
:100D1C00084A7B6813441B789B09DBB203F0010380
:100D2C00DBB21A464021044800F06DFC00BF0837C6
:100D3C00BD4680BD2C000020000C014080B582B067
:100D4C0000AF7860344A7B6813441B7803F00103CE
:100D5C00DBB21A468021314800F055FC2E4A7B68E4
:100D6C0013441B785B08DBB203F00103DBB21A46B9
:100D7C004FF48071294800F046FC274A7B681344E5
:100D8C001B789B08DBB203F00103DBB21A464FF46D
:100D9C000071224800F037FC1F4A7B6813441B7813
:100DAC00DB08DBB203F00103DBB21A464FF48061BF
:100DBC001A4800F028FC184A7B6813441B781B095E
:100DCC00DBB203F00103DBB21A464FF400611348A7
:100DDC0000F019FC104A7B6813441B785B09DBB2EA
:100DEC0003F00103DBB21A464FF480510B4800F0BC
:100DFC000AFC094A7B6813441B789B09DBB203F09D
:100E0C000103DBB21A464FF40051044800F0FBFB1F
:100E1C0000BF0837BD4680BD2C000020000C0140EF
:100E2C0080B582B000AF786039605E4B1B68022BD6
:100E3C006FD0022B00F3AD80002B02D0012B32D0EF
:100E4C00A7E000220221584800F0DDFB012204211A
:100E5C00554800F0D8FB00224FF48041524800F076
:100E6C00D2FB01224FF400414F4800F0CCFB7B68D1
:100E7C004E4A82FB03129210DB17D31A1846FFF767
:100E8C00F1FE3B68494A82FB03129210DB17D31A1E
:100E9C001846FFF753FF434B01221A604FF4FA70C8
:100EAC00FFF7BCFD7AE0002202213F4800F0ABFBCB
:100EBC00012204213C4800F0A6FB00224FF48041A3
:100ECC00394800F0A0FB01224FF40041364800F0F5
:100EDC009AFB7B68354A82FB03129210DB17D31AFC
:100EEC001846FFF7BFFE3B68304A82FB0312921094
:100EFC00DB17D31A1846FFF721FF2D4B1B68012B6C
:100F0C0049D1284B02221A604FF4FA70FFF786FD84
:100F1C0041E001220221244800F075FB002204214B
:100F2C00214800F070FB01224FF480411E4800F074
:100F3C006AFB00224FF400411B4800F064FB7A6806
:100F4C001A4B83FB02139910D317C91A0B469B003B
:100F5C000B445B00D11A0846FFF784FE3A68134B2A
:100F6C0083FB02139910D317C91A0B469B000B4431
:100F7C005B00D11A0846FFF7E1FE0D4B1B68012BF5
:100F8C000BD1084B01221A604FF4FA70FFF746FDA3
:100F9C0003E000BF02E000BF00E000BF00BF083765
:100FAC00BD4680BD6C000020000801406766666687
:100FBC00CC000020FFF750FE0B480C490C4A0023D4
:100FCC0002E0D458C4500433C4188C42F9D3094AF3
:100FDC00094C002301E013600432A242FBD301F060
:100FEC0009FBFFF7DDFB70470000002040000020EC
:100FFC009C26000840000020EC000020FEE70000CA
:10100C0080B500AF084B1B68074A43F01003136010
:10101C00032000F023F90F2000F008F8FFF7A4FDDF
:10102C000023184680BD00BF0020024080B582B06E
:10103C0000AF7860124B1A68124B1B7819464FF4AC
:10104C007A73B3FBF1F3B2FBF3F3184600F03BF900
:10105C000346002B01D001230EE07B680F2B0AD82E
:10106C00002279684FF0FF3000F003F9064A7B68E4
:10107C001360002300E0012318460837BD4680BDED
:10108C00280000203C0000203800002080B400AF75
:10109C00054B1B781A46054B1B681344034A136017
:1010AC0000BFBD4680BC70473C000020E80000201B
:1010BC0080B400AF024B1B681846BD4680BC70471D
:1010CC00E800002080B485B000AF78607B6803F046
:1010DC000703FB600C4BDB68BB60BA684FF6FF0381
:1010EC001340BB60FB681A02BB68134343F0BF6339
:1010FC0043F40033BB60044ABB68D36000BF1437B1
:10110C00BD4680BC704700BF00ED00E080B400AF6E
:10111C00044BDB681B0A03F007031846BD4680BC72
:10112C00704700BF00ED00E080B483B000AF034611
:10113C00FB7197F90730002B0BDBFB7903F01F02D7
:10114C00064997F907305B09012000FA02F241F8D1
:10115C00232000BF0C37BD4680BC704700E100E087
:10116C0080B483B000AF03463960FB7197F9073048
:10117C00002B0ADB3B68DAB20C4997F907301201F5
:10118C00D2B20B4483F800230AE03B68DAB2084978
:10119C00FB7903F00F03043B1201D2B20B441A7615
:1011AC0000BF0C37BD4680BC704700BF00E100E0BB
:1011BC0000ED00E080B489B000AFF860B9607A60EF
:1011CC00FB6803F00703FB61FB69C3F10703042B06
:1011DC0028BF0423BB61FB690433062B02D9FB69CE
:1011EC00033B00E000237B614FF0FF32BB6902FA46
:1011FC0003F3DA43BB681A407B699A404FF0FF3126
:10120C007B6901FA03F3D9437B680B4013431846FF
:10121C002437BD4680BC704780B582B000AF786083
:10122C007B68013BB3F1807F01D301230FE00A4AB5
:10123C007B68013B53600F214FF0FF30FFF790FFAD
:10124C00054B00229A60044B07221A6000231846B3
:10125C000837BD4680BD00BF10E000E080B582B00D
:10126C0000AF78607868FFF72DFF00BF0837BD46E8
:10127C0080BD80B586B000AF0346B9607A60FB7361
:10128C0000237B61FFF742FF78617A68B96878695F
:10129C00FFF790FF024697F90F3011461846FFF7FB
:1012AC005FFF00BF1837BD4680BD80B582B000AF70
:1012BC000346FB7197F907301846FFF735FF00BF5F
:1012CC000837BD4680BD80B582B000AF78607868C5
:1012DC00FFF7A2FF034618460837BD4680BD000045
:1012EC0080B48BB000AF7860396000237B62002340
:1012FC003B6261E101227B6A02FA03F3FB613B680A
:10130C001B68FA691340BB61BA69FB699A4240F0E9
:10131C0050813B685B68974A93425ED0954A9342F2
:10132C0075D8954A934258D0934A93426FD8934AB2
:10133C00934252D0914A934269D8914A93424CD0ED
:10134C008F4A934263D88F4A934246D08D4A934238
:10135C005DD8122B2AD8122B59D801A252F823F09F
:10136C00E7130008C1130008D31300081514000874
:10137C001B1400081B1400081B1400081B14000885
:10138C001B1400081B1400081B1400081B14000875
:10139C001B1400081B1400081B1400081B14000865
:1013AC001B140008C9130008DD130008764A934289
:1013BC0013D02CE03B68DB683B6229E03B68DB68C0
:1013CC0004333B6224E03B68DB6808333B621FE07C
:1013DC003B68DB680C333B621AE03B689B68002B74
:1013EC0002D104233B6213E03B689B68012B05D1BF
:1013FC0008233B627B68FA691A6109E008233B62A7
:10140C007B68FA695A6103E000233B6200E000BF8D
:10141C00BB69FF2B01D87B6801E07B6804337B61DF
:10142C00BB69FF2B02D87B6A9B0002E07B6A083BFE
:10143C009B003B617B691A680F213B6901FA03F33E
:10144C00DB431A40396A3B6901FA03F31A437B699F
:10145C001A603B685B6803F08053002B00F0A98096
:10146C004A4B9B69494A43F001039361474B9B6983
:10147C0003F00103BB60BB68454A7B6A9B080233DF
:10148C0052F82330FB607B6A03F003039B000F22AE
:10149C0002FA03F3DB43FA681340FB607B683D4AB6
:1014AC0093420DD07B683C4A934207D07B683B4A01
:1014BC00934201D1022304E0032302E0012300E064
:1014CC0000237A6A02F0030292009340FA681343F5
:1014DC00FB602F497B6A9B080233FA6841F8232092
:1014EC003B685B6803F48013002B06D02C4B9A6886
:1014FC002B49BB6913438B6006E0294B9A68BB6987
:10150C00DB43274913408B603B685B6803F4001393
:10151C00002B06D0224BDA682149BB691343CB6000
:10152C0006E01F4BDA68BB69DB431D491340CB60F7
:10153C003B685B6803F40033002B06D0184B5A68E9
:10154C001749BB6913434B6006E0154B5A68BB69DE
:10155C00DB43134913404B603B685B6803F48033F7
:10156C00002B1FD00E4B1A680D49BB6913430B603F
:10157C001FE000BF000032100000311000002210EC
:10158C000000211000001210000011100010024089
:10159C000000014000080140000C01400010014017
:1015AC00000401400B4B1A68BB69DB43094913402B
:1015BC000B607B6A01337B623B681A687B6A22FA98
:1015CC0003F3002B7FF496AE00BF00BF2C37BD4653
:1015DC0080BC70470004014080B485B000AF7860D7
:1015EC000B467B807B689A687B881340002B02D06B
:1015FC000123FB7301E00023FB73FB7B18461437BC
:10160C00BD4680BC704780B483B000AF78600B4699
:10161C007B8013467B707B78002B03D07A887B68A9
:10162C001A6103E07B881A047B681A6100BF0C37CF
:10163C00BD4680BC704780B485B000AF78600B4667
:10164C007B807B68DB68FB607A88FB6813401A043C
:10165C00FB68D9437B880B401A437B681A6100BF37
:10166C001437BD4680BC704780B586B000AF78603B
:10167C007B68002B01D1012372E27B681B6803F0AD
:10168C000103002B00F08780924B5B6803F00C0386
:10169C00042B0CD08F4B5B6803F00C03082B12D17E
:1016AC008C4B5B6803F48033B3F5803F0BD1894BD3
:1016BC001B6803F40033002B6CD07B685B68002B39
:1016CC0068D101234CE27B685B68B3F5803F06D19F
:1016DC00804B1B687F4A43F4803313602EE07B6899
:1016EC005B68002B0CD17B4B1B687A4A23F480334C
:1016FC001360784B1B68774A23F4802313601DE03A
:10170C007B685B68B3F5A02F0CD1724B1B68714AD8
:10171C0043F4802313606F4B1B686E4A43F4803391
:10172C0013600BE06B4B1B686A4A23F48033136025
:10173C00684B1B68674A23F4802313607B685B68E3
:10174C00002B13D0FFF7B4FC386108E0FFF7B0FCB6
:10175C0002463B69D31A642B01D9032300E25D4B8B
:10176C001B6803F40033002BF0D014E0FFF7A0FC4F
:10177C00386108E0FFF79CFC02463B69D31A642BE6
:10178C0001D90323ECE1534B1B6803F40033002B0A
:10179C00F0D100E000BF7B681B6803F00203002B54
:1017AC0063D04C4B5B6803F00C03002B0BD0494B04
:1017BC005B6803F00C03082B1CD1464B5B6803F4ED
:1017CC008033002B16D1434B1B6803F00203002B14
:1017DC0005D07B681B69012B01D00123C0E13D4B77
:1017EC001B6823F0F8027B685B69DB003949134303
:1017FC000B603AE07B681B69002B20D0364B012232
:10180C001A60FFF755FC386108E0FFF751FC0246FF
:10181C003B69D31A022B01D90323A1E12D4B1B6881
:10182C0003F00203002BF0D02A4B1B6823F0F802C4
:10183C007B685B69DB00274913430B6015E0264B83
:10184C0000221A60FFF734FC386108E0FFF730FC27
:10185C0002463B69D31A022B01D9032380E11D4BAD
:10186C001B6803F00203002BF0D17B681B6803F0AC
:10187C000803002B3AD07B689B69002B19D0174BBF
:10188C0001221A60FFF714FC386108E0FFF710FC26
:10189C0002463B69D31A022B01D9032360E10D4B9D
:1018AC005B6A03F00203002BF0D0012000F09CFADD
:1018BC001CE00A4B00221A60FFF7FAFB38610FE0BC
:1018CC00FFF7F6FB02463B69D31A022B08D9032318
:1018DC0046E100BF00100240000042428004424238
:1018EC00924B5B6A03F00203002BE9D17B681B6807
:1018FC0003F00403002B00F0A6800023FB758B4B38
:10190C00DB6903F08053002B0DD1884BDB69874AD0
:10191C0043F08053D361854BDB6903F08053BB608C
:10192C00BB680123FB75824B1B6803F48073002B8F
:10193C0018D17F4B1B687E4A43F480731360FFF70A
:10194C00B7FB386108E0FFF7B3FB02463B69D31ADB
:10195C00642B01D9032303E1754B1B6803F48073DB
:10196C00002BF0D07B68DB68012B06D16F4B1B6A18
:10197C006E4A43F0010313622DE07B68DB68002B99
:10198C000CD16A4B1B6A694A23F001031362674B43
:10199C001B6A664A23F0040313621CE07B68DB6855
:1019AC00052B0CD1614B1B6A604A43F00403136294
:1019BC005E4B1B6A5D4A43F0010313620BE05B4B09
:1019CC001B6A5A4A23F001031362584B1B6A574A8D
:1019DC0023F0040313627B68DB68002B15D0FFF740
:1019EC0067FB38610AE0FFF763FB02463B69D31AD9
:1019FC0041F28832934201D90323B1E04B4B1B6A6D
:101A0C0003F00203002BEED014E0FFF751FB38611A
:101A1C000AE0FFF74DFB02463B69D31A41F28832CC
:101A2C00934201D903239BE0404B1B6A03F0020352
:101A3C00002BEED1FB7D012B05D13C4BDB693B4AE6
:101A4C0023F08053D3617B68DB69002B00F0878027
:101A5C00364B5B6803F00C03082B61D07B68DB69A9
:101A6C00022B46D1334B00221A60FFF721FB386161
:101A7C0008E0FFF71DFB02463B69D31A022B01D984
:101A8C0003236DE0294B1B6803F00073002BF0D18E
:101A9C007B681B6AB3F5803F08D1244B5B6823F449
:101AAC0000327B689B68214913434B601F4B5B687A
:101ABC0023F474127B68196A7B685B6A0B431B49BD
:101ACC0013434B601B4B01221A60FFF7F1FA38618C
:101ADC0008E0FFF7EDFA02463B69D31A022B01D955
:101AEC0003233DE0114B1B6803F00073002BF0D077
:101AFC0035E0104B00221A60FFF7DAFA386108E083
:101B0C00FFF7D6FA02463B69D31A022B01D90323FD
:101B1C0026E0064B1B6803F00073002BF0D11EE08F
:101B2C007B68DB69012B07D1012319E0001002400F
:101B3C0000700040600042420B4B5B68FB60FB682E
:101B4C0003F480327B681B6A9A4206D1FB6803F46B
:101B5C0070127B685B6A9A4201D0012300E000237B
:101B6C0018461837BD4680BD0010024080B584B0C1
:101B7C0000AF786039607B68002B01D10123D0E085
:101B8C006A4B1B6803F007033A689A4210D9674BFB
:101B9C001B6823F0070265493B6813430B60634BDA
:101BAC001B6803F007033A689A4201D00123B8E09E
:101BBC007B681B6803F00203002B20D07B681B683A
:101BCC0003F00403002B05D0594B5B68584A43F4CF
:101BDC00E06353607B681B6803F00803002B05D09F
:101BEC00534B5B68524A43F460535360504B5B68F1
:101BFC0023F0F0027B689B684D4913434B607B6874
:101C0C001B6803F00103002B40D07B685B68012B41
:101C1C0007D1474B1B6803F40033002B15D101236C
:101C2C007FE07B685B68022B07D1414B1B6803F09C
:101C3C000073002B09D1012373E03D4B1B6803F0AB
:101C4C000203002B01D101236BE0394B5B6823F0BD
:101C5C0003027B685B68364913434B60FFF728FA35
:101C6C00F8600AE0FFF724FA0246FB68D31A41F247
:101C7C008832934201D9032353E02D4B5B6803F068
:101C8C000C027B685B689B009A42EBD1274B1B686C
:101C9C0003F007033A689A4210D2244B1B6823F0D6
:101CAC00070222493B6813430B60204B1B6803F06F
:101CBC0007033A689A4201D0012332E07B681B6823
:101CCC0003F00403002B08D0194B5B6823F4E0628B
:101CDC007B68DB68164913434B607B681B6803F019
:101CEC000803002B09D0124B5B6823F460527B680D
:101CFC001B69DB000E4913434B6000F021F80246D0
:101D0C000B4B5B681B0903F00F030A49CB5C22FAEF
:101D1C0003F3094A1360094B1B681846FFF786F951
:101D2C00002318461037BD4680BD00BF002002407E
:101D3C000010024070260008280000203800002007
:101D4C0080B487B000AF0023FB600023BB6000238E
:101D5C007B6100237B6000233B611E4B5B68FB6057
:101D6C00FB6803F00C03042B02D0082B03D027E0F4
:101D7C00194B3B6127E0FB689B0C03F00F03174AE0
:101D8C00D35C7B60FB6803F48033002B10D0114BC9
:101D9C005B685B0C03F00103114AD35CBB607B688E
:101DAC000D4A03FB02F2BB68B2FBF3F37B6104E068
:101DBC007B680C4A02FB03F37B617B693B6102E0AD
:101DCC00054B3B6100BF3B6918461C37BD4680BCC8
:101DDC00704700BF0010024000127A0080260008F5
:101DEC009026000800093D0080B485B000AF7860F3
:101DFC000A4B1B680A4AA2FB03235B0A7A6802FBA4
:101E0C0003F3FB6000BFFB685A1EFA60002BF9D18C
:101E1C0000BF00BF1437BD4680BC704728000020AF
:101E2C00D34D621080B582B000AF78607B68002B18
:101E3C0001D1012341E07B6893F83D30DBB2002BEC
:101E4C0006D17B68002283F83C207868FEF7AEFE52
:101E5C007B68022283F83D207B681A687B68043318
:101E6C001946104600F06EFA7B68012283F8462072
:101E7C007B68012283F83E207B68012283F83F2097
:101E8C007B68012283F840207B68012283F8412083
:101E9C007B68012283F842207B68012283F843206F
:101EAC007B68012283F844207B68012283F845205B
:101EBC007B68012283F83D20002318460837BD4675
:101ECC0080BD000080B485B000AF78607B6893F86B
:101EDC003D30DBB2012B01D0012335E07B680222BF
:101EEC0083F83D207B681B68DA687B681B6842F0CE
:101EFC000102DA607B681B68164A934209D07B6842
:101F0C001B68B3F1804F04D07B681B68124A934264
:101F1C0011D17B681B689B6803F00703FB60FB68AF
:101F2C00062B10D07B681B681A687B681B6842F014
:101F3C0001021A6007E07B681B681A687B681B68E3
:101F4C0042F001021A60002318461437BD4680BCCB
:101F5C00704700BF002C01400004004080B582B0E7
:101F6C0000AF78607B681B681B6903F00203022BCF
:101F7C0022D17B681B68DB6803F00203022B1BD1A8
:101F8C007B681B686FF002021A617B6801221A776A
:101F9C007B681B689B6903F00303002B03D07868F4
:101FAC0000F0B4F905E0786800F0A7F9786800F063
:101FBC00B6F97B6800221A777B681B681B6903F0F3
:101FCC000403042B22D17B681B68DB6803F0040339
:101FDC00042B1BD17B681B686FF004021A617B68B1
:101FEC0002221A777B681B689B6903F44073002BF1
:101FFC0003D0786800F08AF905E0786800F07DF984
:10200C00786800F08CF97B6800221A777B681B6873
:10201C001B6903F00803082B22D17B681B68DB6863
:10202C0003F00803082B1BD17B681B686FF00802B8
:10203C001A617B6804221A777B681B68DB6903F0E2
:10204C000303002B03D0786800F060F905E0786892
:10205C0000F053F9786800F062F97B6800221A7777
:10206C007B681B681B6903F01003102B22D17B6863
:10207C001B68DB6803F01003102B1BD17B681B68FB
:10208C006FF010021A617B6808221A777B681B6854
:10209C00DB6903F44073002B03D0786800F036F949
:1020AC0005E0786800F029F9786800F038F97B6869
:1020BC0000221A777B681B681B6903F00103012B54
:1020CC000ED17B681B68DB6803F00103012B07D181
:1020DC007B681B686FF001021A617868FEF770FC70
:1020EC007B681B681B6903F08003802B0ED17B6817
:1020FC001B68DB6803F08003802B07D17B681B68AF
:10210C006FF080021A61786800F06BFA7B681B68CC
:10211C001B6903F04003402B0ED17B681B68DB6806
:10212C0003F04003402B07D17B681B686FF0400223
:10213C001A61786800F0FCF87B681B681B6903F077
:10214C002003202B0ED17B681B68DB6803F0200377
:10215C00202B07D17B681B686FF020021A6178680E
:10216C0000F036FA00BF0837BD4680BD80B584B09C
:10217C0000AF786039600023FB737B6893F83C30C8
:10218C00012B01D10223B4E07B68012283F83C20AF
:10219C007B68022283F83D207B681B689B68BB60D0
:1021AC00BB6823F07703BB60BB6823F47F43BB6041
:1021BC007B681B68BA689A603B681B68B3F5005F64
:1021CC003ED0B3F5005F00F28780B3F5805F00F07E
:1021DC008680B3F5805F7FD8702B1AD0702B7BD89C
:1021EC00602B50D0602B77D8502B3CD0502B73D811
:1021FC00402B58D0402B6FD8302B64D0302B6BD861
:10220C00202B60D0202B67D8002B5CD0102B5AD001
:10221C0062E07B6818683B6899683B685A683B6861
:10222C00DB6800F05EF97B681B689B68BB60BB6871
:10223C0043F07703BB607B681B68BA689A604FE019
:10224C007B6818683B6899683B685A683B68DB6830
:10225C0000F047F97B681B689A687B681B6842F43E
:10226C0080429A603CE07B6818683B6859683B6820
:10227C00DB681A4600F0BEF87B681B6850211846D4
:10228C0000F015F92CE07B6818683B6859683B68CE
:10229C00DB681A4600F0DCF87B681B686021184686
:1022AC0000F005F91CE07B6818683B6859683B68CE
:1022BC00DB681A4600F09EF87B681B6840211846C4
:1022CC0000F0F5F80CE07B681A683B681B6819464F
:1022DC00104600F0ECF803E00123FB7300E000BFB4
:1022EC007B68012283F83D207B68002283F83C2028
:1022FC00FB7B18461037BD4680BD80B483B000AF61
:10230C00786000BF0C37BD4680BC704780B483B08A
:10231C0000AF786000BF0C37BD4680BC704780B4FE
:10232C0083B000AF786000BF0C37BD4680BC7047EF
:10233C0080B483B000AF786000BF0C37BD4680BC62
:10234C007047000080B485B000AF786039607B685E
:10235C001B68FB607B68254A934207D07B68B3F10E
:10236C00804F03D07B68224A934208D1FB6823F04C
:10237C007003FB603B685B68FA681343FB607B6827
:10238C001A4A934207D07B68B3F1804F03D07B6825
:10239C00174A934208D1FB6823F44073FB603B68F7
:1023AC00DB68FA681343FB60FB6823F080023B6830
:1023BC005B691343FB607B68FA681A603B689A6838
:1023CC007B68DA623B681A687B689A627B68074AAA
:1023DC00934203D13B681A697B681A637B680122BC
:1023EC005A6100BF1437BD4680BC7047002C0140B9
:1023FC000004004080B487B000AFF860B9607A6028
:10240C00FB681B6A7B61FB681B6A23F00102FB689B
:10241C001A62FB689B693B613B6923F0F0033B61EB
:10242C007B681B013A6913433B617B6923F00A0308
:10243C007B617A69BB6813437B61FB683A699A617B
:10244C00FB687A691A6200BF1C37BD4680BC7047B6
:10245C0080B487B000AFF860B9607A60FB681B6A23
:10246C007B61FB681B6A23F01002FB681A62FB6835
:10247C009B693B613B6923F470433B617B681B03A5
:10248C003A6913433B617B6923F0A0037B61BB6812
:10249C001B017A6913437B61FB683A699A61FB689B
:1024AC007A691A6200BF1C37BD4680BC704780B485
:1024BC0085B000AF786039607B689B68FB60FB6817
:1024CC0023F07003FB603A68FB68134343F0070387
:1024DC00FB607B68FA689A6000BF1437BD4680BC0D
:1024EC00704780B487B000AFF860B9607A603B6029
:1024FC00FB689B687B617B6923F47F437B613B6852
:10250C001A027B681A43BB6813437A6913437B61D5
:10251C00FB687A699A6000BF1C37BD4680BC704767
:10252C0080B485B000AF786039607B6893F83C303C
:10253C00012B01D1022341E07B68012283F83C206E
:10254C007B68022283F83D207B681B685B68FB601C
:10255C007B681B689B68BB60FB6823F07003FB60A7
:10256C003B681B68FA681343FB607B681B68FA685E
:10257C005A607B681B68144A934209D07B681B68BD
:10258C00B3F1804F04D07B681B68104A93420CD186
:10259C00BB6823F08003BB603B685B68BA6813437D
:1025AC00BB607B681B68BA689A607B68012283F801
:1025BC003D207B68002283F83C200023184614370A
:1025CC00BD4680BC704700BF002C01400004004099
:1025DC0080B483B000AF786000BF0C37BD4680BCC0
:1025EC00704780B483B000AF786000BF0C37BD4635
:1025FC0080BC704770B500260C4D0D4C641BA410AC
:10260C00A64209D100F022F800260A4D0A4C641BA0
:10261C00A410A64205D170BD55F8043B984701366D
:10262C00EEE755F8043B98470136F2E7942600088C
:10263C0094260008942600089826000803460244B5
:10264C00934200D1704703F8011BF9E7F8B500BFBE
:10265C00F8BC08BC9E467047F8B500BFF8BC08BC77
:04266C009E467047CF
:102670000000000000000000010203040607080932
:1026800002030405060708090A0B0C0D0E0F1010B3
:042690000102000043
:042694003101000808
:042698000D01000828
:10269C000101010001010100010101000101010022
:1026AC0064000000640000006400000005000000ED
:1026BC0003000000020000000024F40040792430E4
:1026CC001912027800100000100000000100000038
:0400000508000FC11F
:00000001FF
